{
  "contractName": "Enrollment",
  "abi": [
    {
      "inputs": [],
      "payable": false,
      "stateMutability": "nonpayable",
      "type": "constructor"
    },
    {
      "anonymous": false,
      "inputs": [
        {
          "indexed": false,
          "internalType": "string",
          "name": "title",
          "type": "string"
        }
      ],
      "name": "ConferenceExpire",
      "type": "event"
    },
    {
      "anonymous": false,
      "inputs": [
        {
          "indexed": false,
          "internalType": "string",
          "name": "title",
          "type": "string"
        }
      ],
      "name": "MyNewConference",
      "type": "event"
    },
    {
      "anonymous": false,
      "inputs": [
        {
          "indexed": false,
          "internalType": "string",
          "name": "title",
          "type": "string"
        },
        {
          "indexed": false,
          "internalType": "string",
          "name": "detail",
          "type": "string"
        }
      ],
      "name": "NewConference",
      "type": "event"
    },
    {
      "constant": true,
      "inputs": [],
      "name": "admin",
      "outputs": [
        {
          "internalType": "address",
          "name": "",
          "type": "address"
        }
      ],
      "payable": false,
      "stateMutability": "view",
      "type": "function"
    },
    {
      "constant": true,
      "inputs": [
        {
          "internalType": "uint256",
          "name": "",
          "type": "uint256"
        }
      ],
      "name": "conferences",
      "outputs": [
        {
          "internalType": "string",
          "name": "title",
          "type": "string"
        },
        {
          "internalType": "string",
          "name": "detail",
          "type": "string"
        },
        {
          "internalType": "uint256",
          "name": "max",
          "type": "uint256"
        },
        {
          "internalType": "uint256",
          "name": "current",
          "type": "uint256"
        }
      ],
      "payable": false,
      "stateMutability": "view",
      "type": "function"
    },
    {
      "constant": true,
      "inputs": [
        {
          "internalType": "address",
          "name": "",
          "type": "address"
        }
      ],
      "name": "participants",
      "outputs": [
        {
          "internalType": "string",
          "name": "name",
          "type": "string"
        },
        {
          "internalType": "string",
          "name": "extra",
          "type": "string"
        }
      ],
      "payable": false,
      "stateMutability": "view",
      "type": "function"
    },
    {
      "constant": false,
      "inputs": [
        {
          "internalType": "string",
          "name": "username",
          "type": "string"
        },
        {
          "internalType": "string",
          "name": "extra",
          "type": "string"
        }
      ],
      "name": "signUp",
      "outputs": [
        {
          "internalType": "string",
          "name": "",
          "type": "string"
        },
        {
          "internalType": "string",
          "name": "",
          "type": "string"
        }
      ],
      "payable": false,
      "stateMutability": "nonpayable",
      "type": "function"
    },
    {
      "constant": false,
      "inputs": [
        {
          "internalType": "string",
          "name": "title",
          "type": "string"
        }
      ],
      "name": "enroll",
      "outputs": [
        {
          "internalType": "string",
          "name": "",
          "type": "string"
        }
      ],
      "payable": false,
      "stateMutability": "nonpayable",
      "type": "function"
    },
    {
      "constant": false,
      "inputs": [
        {
          "internalType": "string",
          "name": "title",
          "type": "string"
        },
        {
          "internalType": "string",
          "name": "detail",
          "type": "string"
        },
        {
          "internalType": "uint256",
          "name": "max",
          "type": "uint256"
        }
      ],
      "name": "newConference",
      "outputs": [
        {
          "internalType": "string",
          "name": "",
          "type": "string"
        }
      ],
      "payable": false,
      "stateMutability": "nonpayable",
      "type": "function"
    },
    {
      "constant": true,
      "inputs": [],
      "name": "queryConfList",
      "outputs": [
        {
          "internalType": "string[]",
          "name": "",
          "type": "string[]"
        }
      ],
      "payable": false,
      "stateMutability": "view",
      "type": "function"
    },
    {
      "constant": true,
      "inputs": [],
      "name": "queryMyConf",
      "outputs": [
        {
          "internalType": "string[]",
          "name": "",
          "type": "string[]"
        }
      ],
      "payable": false,
      "stateMutability": "view",
      "type": "function"
    },
    {
      "constant": false,
      "inputs": [
        {
          "internalType": "address",
          "name": "addr",
          "type": "address"
        }
      ],
      "name": "delegate",
      "outputs": [],
      "payable": false,
      "stateMutability": "nonpayable",
      "type": "function"
    },
    {
      "constant": false,
      "inputs": [
        {
          "internalType": "string",
          "name": "username",
          "type": "string"
        },
        {
          "internalType": "string",
          "name": "title",
          "type": "string"
        }
      ],
      "name": "enrollFor",
      "outputs": [
        {
          "internalType": "string",
          "name": "",
          "type": "string"
        }
      ],
      "payable": false,
      "stateMutability": "nonpayable",
      "type": "function"
    }
  ],
  "bytecode": "0x608060405234801561001057600080fd5b50336000806101000a81548173ffffffffffffffffffffffffffffffffffffffff021916908373ffffffffffffffffffffffffffffffffffffffff160217905550612335806100606000396000f3fe608060405234801561001057600080fd5b506004361061009e5760003560e01c806379fe9a9a1161006657806379fe9a9a1461016e578063a469a332146101a1578063bf3d6af8146101d2578063f851a440146101f0578063fa936afa1461020e5761009e565b806309e69ede146100a3578063312e1d29146100d45780635c19a95c146100f257806361f572611461010e57806367b09cdb1461013e575b600080fd5b6100bd60048036036100b89190810190611b36565b61023e565b6040516100cb929190612041565b60405180910390f35b6100dc610392565b6040516100e99190611fc6565b60405180910390f35b61010c60048036036101079190810190611b36565b610655565b005b61012860048036036101239190810190611c0c565b61076b565b6040516101359190611fe8565b60405180910390f35b61015860048036036101539190810190611b5f565b61099d565b6040516101659190611fe8565b60405180910390f35b61018860048036036101839190810190611c8b565b610d7e565b6040516101989493929190612078565b60405180910390f35b6101bb60048036036101b69190810190611ba0565b610eeb565b6040516101c992919061200a565b60405180910390f35b6101da6111fd565b6040516101e79190611fc6565b60405180910390f35b6101f8611326565b6040516102059190611fab565b60405180910390f35b61022860048036036102239190810190611ba0565b61134b565b6040516102359190611fe8565b60405180910390f35b6001602052806000526040600020600091509050806000018054600181600116156101000203166002900480601f0160208091040260200160405190810160405280929190818152602001828054600181600116156101000203166002900480156102ea5780601f106102bf576101008083540402835291602001916102ea565b820191906000526020600020905b8154815290600101906020018083116102cd57829003601f168201915b505050505090806001018054600181600116156101000203166002900480601f0160208091040260200160405190810160405280929190818152602001828054600181600116156101000203166002900480156103885780601f1061035d57610100808354040283529160200191610388565b820191906000526020600020905b81548152906001019060200180831161036b57829003601f168201915b5050505050905082565b6060600080905060008090505b60038054905081101561040457600381815481106103b957fe5b906000526020600020906004020160020154600382815481106103d857fe5b90600052602060002090600402016003015410156103f7576002820191505b808060010191505061039f565b5060608160405190808252806020026020018201604052801561043b57816020015b60608152602001906001900390816104265790505b5090506000915060008090505b60038054905081101561064c576003818154811061046257fe5b9060005260206000209060040201600201546003828154811061048157fe5b906000526020600020906004020160030154101561063f57600381815481106104a657fe5b90600052602060002090600402016000018054600181600116156101000203166002900480601f01602080910402602001604051908101604052809291908181526020018280546001816001161561010002031660029004801561054b5780601f106105205761010080835404028352916020019161054b565b820191906000526020600020905b81548152906001019060200180831161052e57829003601f168201915b505050505082848151811061055c57fe5b60200260200101819052506003818154811061057457fe5b90600052602060002090600402016001018054600181600116156101000203166002900480601f0160208091040260200160405190810160405280929190818152602001828054600181600116156101000203166002900480156106195780601f106105ee57610100808354040283529160200191610619565b820191906000526020600020905b8154815290600101906020018083116105fc57829003601f168201915b505050505082600185018151811061062d57fe5b60200260200101819052506002830192505b8080600101915050610448565b50809250505090565b600260008273ffffffffffffffffffffffffffffffffffffffff1673ffffffffffffffffffffffffffffffffffffffff168152602001908152602001600020600160003373ffffffffffffffffffffffffffffffffffffffff1673ffffffffffffffffffffffffffffffffffffffff1681526020019081526020016000209080600181540180825580915050906001820390600052602060002090600302016000909192909190915060008201816000019080546001816001161561010002031660029004610725929190611828565b506001820181600101908054600181600116156101000203166002900461074d929190611828565b5060028201816002019080546107649291906118af565b5050505050565b60606000809054906101000a900473ffffffffffffffffffffffffffffffffffffffff1673ffffffffffffffffffffffffffffffffffffffff163373ffffffffffffffffffffffffffffffffffffffff16146107fc576040517f08c379a00000000000000000000000000000000000000000000000000000000081526004016107f3906120cb565b60405180910390fd5b60036040518060800160405280868152602001858152602001848152602001600081525090806001815401808255809150509060018203906000526020600020906004020160009091929091909150600082015181600001908051906020019061086792919061191f565b50602082015181600101908051906020019061088492919061191f565b5060408201518160020155606082015181600301555050507f130973d222f867ce0ba56247f5740bdd4f4cc047281c3395197edbab007b514784846040516108cd92919061200a565b60405180910390a16003600160038054905003815481106108ea57fe5b90600052602060002090600402016000018054600181600116156101000203166002900480601f01602080910402602001604051908101604052809291908181526020018280546001816001161561010002031660029004801561098f5780601f106109645761010080835404028352916020019161098f565b820191906000526020600020905b81548152906001019060200180831161097257829003601f168201915b505050505090509392505050565b606060008090505b600380549050811015610bf5578280519060200120600382815481106109c757fe5b90600052602060002090600402016000016040516109e59190611f94565b60405180910390201415610be85760038181548110610a0057fe5b90600052602060002090600402016002015460038281548110610a1f57fe5b90600052602060002090600402016003015410610a71576040517f08c379a0000000000000000000000000000000000000000000000000000000008152600401610a689061212b565b60405180910390fd5b600160038281548110610a8057fe5b9060005260206000209060040201600301540160038281548110610aa057fe5b90600052602060002090600402016003018190555060038181548110610ac257fe5b90600052602060002090600402016002015460038281548110610ae157fe5b9060005260206000209060040201600301541415610b31577f4116eed53c5dbdbaa5ceb05d02a470f96b83428606acdc17b43009818c246f5f83604051610b289190611fe8565b60405180910390a15b600160003373ffffffffffffffffffffffffffffffffffffffff1673ffffffffffffffffffffffffffffffffffffffff168152602001908152602001600020600201839080600181540180825580915050906001820390600052602060002001600090919290919091509080519060200190610bae92919061199f565b50507ff36e073ee6557003aa9d3b0e015128c61a86d7e168c94aa1acc92f932a404fa083604051610bdf9190611fe8565b60405180910390a15b80806001019150506109a5565b506000600160003373ffffffffffffffffffffffffffffffffffffffff1673ffffffffffffffffffffffffffffffffffffffff16815260200190815260200160002060020180549050905060008111610c83576040517f08c379a0000000000000000000000000000000000000000000000000000000008152600401610c7a906120eb565b60405180910390fd5b600160003373ffffffffffffffffffffffffffffffffffffffff1673ffffffffffffffffffffffffffffffffffffffff1681526020019081526020016000206002016001820381548110610cd357fe5b906000526020600020018054600181600116156101000203166002900480601f016020809104026020016040519081016040528092919081815260200182805460018160011615610100020316600290048015610d715780601f10610d4657610100808354040283529160200191610d71565b820191906000526020600020905b815481529060010190602001808311610d5457829003601f168201915b5050505050915050919050565b60038181548110610d8b57fe5b9060005260206000209060040201600091509050806000018054600181600116156101000203166002900480601f016020809104026020016040519081016040528092919081815260200182805460018160011615610100020316600290048015610e375780601f10610e0c57610100808354040283529160200191610e37565b820191906000526020600020905b815481529060010190602001808311610e1a57829003601f168201915b505050505090806001018054600181600116156101000203166002900480601f016020809104026020016040519081016040528092919081815260200182805460018160011615610100020316600290048015610ed55780601f10610eaa57610100808354040283529160200191610ed5565b820191906000526020600020905b815481529060010190602001808311610eb857829003601f168201915b5050505050908060020154908060030154905084565b6060806000600160003373ffffffffffffffffffffffffffffffffffffffff1673ffffffffffffffffffffffffffffffffffffffff1681526020019081526020016000206000018054600181600116156101000203166002900490501115610f88576040517f08c379a0000000000000000000000000000000000000000000000000000000008152600401610f7f9061210b565b60405180910390fd5b83600160003373ffffffffffffffffffffffffffffffffffffffff1673ffffffffffffffffffffffffffffffffffffffff1681526020019081526020016000206000019080519060200190610fde92919061199f565b5082600160003373ffffffffffffffffffffffffffffffffffffffff1673ffffffffffffffffffffffffffffffffffffffff168152602001908152602001600020600101908051906020019061103592919061199f565b50600160003373ffffffffffffffffffffffffffffffffffffffff1673ffffffffffffffffffffffffffffffffffffffff168152602001908152602001600020600001600160003373ffffffffffffffffffffffffffffffffffffffff1673ffffffffffffffffffffffffffffffffffffffff168152602001908152602001600020600101818054600181600116156101000203166002900480601f01602080910402602001604051908101604052809291908181526020018280546001816001161561010002031660029004801561114f5780601f106111245761010080835404028352916020019161114f565b820191906000526020600020905b81548152906001019060200180831161113257829003601f168201915b50505050509150808054600181600116156101000203166002900480601f0160208091040260200160405190810160405280929190818152602001828054600181600116156101000203166002900480156111eb5780601f106111c0576101008083540402835291602001916111eb565b820191906000526020600020905b8154815290600101906020018083116111ce57829003601f168201915b50505050509050915091509250929050565b6060600160003373ffffffffffffffffffffffffffffffffffffffff1673ffffffffffffffffffffffffffffffffffffffff168152602001908152602001600020600201805480602002602001604051908101604052809291908181526020016000905b8282101561131d578382906000526020600020018054600181600116156101000203166002900480601f0160208091040260200160405190810160405280929190818152602001828054600181600116156101000203166002900480156113095780601f106112de57610100808354040283529160200191611309565b820191906000526020600020905b8154815290600101906020018083116112ec57829003601f168201915b505050505081526020019060010190611261565b50505050905090565b6000809054906101000a900473ffffffffffffffffffffffffffffffffffffffff1681565b6060600080600090505b600260003373ffffffffffffffffffffffffffffffffffffffff1673ffffffffffffffffffffffffffffffffffffffff16815260200190815260200160002080549050811015611432578480519060200120600260003373ffffffffffffffffffffffffffffffffffffffff1673ffffffffffffffffffffffffffffffffffffffff16815260200190815260200160002082815481106113f157fe5b906000526020600020906003020160000160405161140f9190611f94565b6040518091039020141561142557809150611432565b8080600101915050611355565b5060008090505b60038054905081101561166b5783805190602001206003828154811061145b57fe5b90600052602060002090600402016000016040516114799190611f94565b6040518091039020141561165e576003818154811061149457fe5b906000526020600020906004020160020154600382815481106114b357fe5b90600052602060002090600402016003015410611505576040517f08c379a00000000000000000000000000000000000000000000000000000000081526004016114fc9061212b565b60405180910390fd5b60016003828154811061151457fe5b906000526020600020906004020160030154016003828154811061153457fe5b9060005260206000209060040201600301819055506003818154811061155657fe5b9060005260206000209060040201600201546003828154811061157557fe5b90600052602060002090600402016003015414156115c5577f4116eed53c5dbdbaa5ceb05d02a470f96b83428606acdc17b43009818c246f5f846040516115bc9190611fe8565b60405180910390a15b600260003373ffffffffffffffffffffffffffffffffffffffff1673ffffffffffffffffffffffffffffffffffffffff168152602001908152602001600020828154811061160f57fe5b906000526020600020906003020160020184908060018154018082558091505090600182039060005260206000200160009091929091909150908051906020019061165b92919061199f565b50505b8080600101915050611439565b506000600260003373ffffffffffffffffffffffffffffffffffffffff1673ffffffffffffffffffffffffffffffffffffffff16815260200190815260200160002082815481106116b857fe5b906000526020600020906003020160020180549050905060008111611712576040517f08c379a0000000000000000000000000000000000000000000000000000000008152600401611709906120eb565b60405180910390fd5b600260003373ffffffffffffffffffffffffffffffffffffffff1673ffffffffffffffffffffffffffffffffffffffff168152602001908152602001600020828154811061175c57fe5b9060005260206000209060030201600201600182038154811061177b57fe5b906000526020600020018054600181600116156101000203166002900480601f0160208091040260200160405190810160405280929190818152602001828054600181600116156101000203166002900480156118195780601f106117ee57610100808354040283529160200191611819565b820191906000526020600020905b8154815290600101906020018083116117fc57829003601f168201915b50505050509250505092915050565b828054600181600116156101000203166002900490600052602060002090601f016020900481019282601f10611861578054855561189e565b8280016001018555821561189e57600052602060002091601f016020900482015b8281111561189d578254825591600101919060010190611882565b5b5090506118ab9190611a1f565b5090565b82805482825590600052602060002090810192821561190e5760005260206000209182015b8281111561190d57828290805460018160011615610100020316600290046118fd929190611828565b50916001019190600101906118d4565b5b50905061191b9190611a44565b5090565b828054600181600116156101000203166002900490600052602060002090601f016020900481019282601f1061196057805160ff191683800117855561198e565b8280016001018555821561198e579182015b8281111561198d578251825591602001919060010190611972565b5b50905061199b9190611a1f565b5090565b828054600181600116156101000203166002900490600052602060002090601f016020900481019282601f106119e057805160ff1916838001178555611a0e565b82800160010185558215611a0e579182015b82811115611a0d5782518255916020019190600101906119f2565b5b509050611a1b9190611a1f565b5090565b611a4191905b80821115611a3d576000816000905550600101611a25565b5090565b90565b611a6d91905b80821115611a695760008181611a609190611a70565b50600101611a4a565b5090565b90565b50805460018160011615610100020316600290046000825580601f10611a965750611ab5565b601f016020900490600052602060002090810190611ab49190611a1f565b5b50565b600081359050611ac7816122c4565b92915050565b600082601f830112611ade57600080fd5b8135611af1611aec82612178565b61214b565b91508082526020830160208301858383011115611b0d57600080fd5b611b18838284612271565b50505092915050565b600081359050611b30816122db565b92915050565b600060208284031215611b4857600080fd5b6000611b5684828501611ab8565b91505092915050565b600060208284031215611b7157600080fd5b600082013567ffffffffffffffff811115611b8b57600080fd5b611b9784828501611acd565b91505092915050565b60008060408385031215611bb357600080fd5b600083013567ffffffffffffffff811115611bcd57600080fd5b611bd985828601611acd565b925050602083013567ffffffffffffffff811115611bf657600080fd5b611c0285828601611acd565b9150509250929050565b600080600060608486031215611c2157600080fd5b600084013567ffffffffffffffff811115611c3b57600080fd5b611c4786828701611acd565b935050602084013567ffffffffffffffff811115611c6457600080fd5b611c7086828701611acd565b9250506040611c8186828701611b21565b9150509250925092565b600060208284031215611c9d57600080fd5b6000611cab84828501611b21565b91505092915050565b6000611cc08383611e13565b905092915050565b611cd181612235565b82525050565b6000611ce2826121c9565b611cec81856121f7565b935083602082028501611cfe856121a4565b8060005b85811015611d3a5784840389528151611d1b8582611cb4565b9450611d26836121ea565b925060208a01995050600181019050611d02565b50829750879550505050505092915050565b600081546001811660008114611d695760018114611d8e57611dd2565b607f6002830416611d7a8187612208565b955060ff1983168652808601935050611dd2565b60028204611d9c8187612208565b9550611da7856121b4565b60005b82811015611dc957815481890152600182019150602081019050611daa565b82880195505050505b505092915050565b6000611de5826121df565b611def8185612224565b9350611dff818560208601612280565b611e08816122b3565b840191505092915050565b6000611e1e826121d4565b611e288185612213565b9350611e38818560208601612280565b611e41816122b3565b840191505092915050565b6000611e57826121d4565b611e618185612224565b9350611e71818560208601612280565b611e7a816122b3565b840191505092915050565b6000611e92601183612224565b91507f7065726d697373696f6e2064656e6965640000000000000000000000000000006000830152602082019050919050565b6000611ed2601983612224565b91507f436f6e666572656e636520646f6573206e6f74206578697374000000000000006000830152602082019050919050565b6000611f12600c83612224565b91507f55736572206578697374732e00000000000000000000000000000000000000006000830152602082019050919050565b6000611f52600d83612224565b91507f456e726f6c6c65642066756c6c000000000000000000000000000000000000006000830152602082019050919050565b611f8e81612267565b82525050565b6000611fa08284611d4c565b915081905092915050565b6000602082019050611fc06000830184611cc8565b92915050565b60006020820190508181036000830152611fe08184611cd7565b905092915050565b600060208201905081810360008301526120028184611dda565b905092915050565b600060408201905081810360008301526120248185611dda565b905081810360208301526120388184611dda565b90509392505050565b6000604082019050818103600083015261205b8185611e4c565b9050818103602083015261206f8184611e4c565b90509392505050565b600060808201905081810360008301526120928187611e4c565b905081810360208301526120a68186611e4c565b90506120b56040830185611f85565b6120c26060830184611f85565b95945050505050565b600060208201905081810360008301526120e481611e85565b9050919050565b6000602082019050818103600083015261210481611ec5565b9050919050565b6000602082019050818103600083015261212481611f05565b9050919050565b6000602082019050818103600083015261214481611f45565b9050919050565b6000604051905081810181811067ffffffffffffffff8211171561216e57600080fd5b8060405250919050565b600067ffffffffffffffff82111561218f57600080fd5b601f19601f8301169050602081019050919050565b6000819050602082019050919050565b60008190508160005260206000209050919050565b600081519050919050565b600081519050919050565b600081519050919050565b6000602082019050919050565b600082825260208201905092915050565b600081905092915050565b600082825260208201905092915050565b600082825260208201905092915050565b600061224082612247565b9050919050565b600073ffffffffffffffffffffffffffffffffffffffff82169050919050565b6000819050919050565b82818337600083830152505050565b60005b8381101561229e578082015181840152602081019050612283565b838111156122ad576000848401525b50505050565b6000601f19601f8301169050919050565b6122cd81612235565b81146122d857600080fd5b50565b6122e481612267565b81146122ef57600080fd5b5056fea365627a7a723158204fbb7695d88e5ab16b94cd63b43d8e299bf4cc53daeb9b891a9eba449e93d1b26c6578706572696d656e74616cf564736f6c63430005100040",
  "source": "// SPDX-License-Identifier: MIT\npragma solidity >=0.4.25 <0.7.0;\npragma experimental ABIEncoderV2;\n\n// This is just a simple example of a coin-like contract.\n// It is not standards compatible and cannot be expected to talk to other\n// coin/token contracts. If you want to create a standards-compliant\n// token, see: https://github.com/ConsenSys/Tokens. Cheers!\n\ncontract Enrollment {\n\n\t/************************************************************/\n\t/*                                                          */\n\t/*          ,124          */\n\t/*                                                          */\n\t/************************************************************/\n\n\t//\n\taddress public admin;\n\t//\n\tstruct Participant{\n\t\tstring name;\n\t\tstring extra;\n\t\tstring[] confs;\n\t}\n\t//\n\tstruct Conference{\n\t\tstring title;\n\t\tstring detail;\n\t\tuint max;\n\t\tuint current;\n\t}\n\t//\n\tmapping (address => Participant) public participants;\n\t//\n\tmapping (address => Participant[]) trustees;\n\t//\n\tConference[] public conferences;\n\n\t//\n\tconstructor() public {\n\t\tadmin = msg.sender;\n\t}\n\n\t//kvparticipants\n\t//\n\tfunction signUp(string memory username,string memory extra) public returns(string memory,string memory) {\n\t\trequire(bytes(participants[msg.sender].name).length<=0,\"User exists.\");\n\t\tparticipants[msg.sender].name = username;\n\t\tparticipants[msg.sender].extra = extra;\n\n\t\treturn (participants[msg.sender].name,participants[msg.sender].extra);\n\t}\n\n\t//\n\t//MyNewConferencemy conferences\n\t//title\n\tfunction enroll(string memory title) public returns(string memory) {\n\t\tfor (uint i = 0;i<conferences.length;i++){\n\t\t\tif (keccak256(bytes(conferences[i].title)) == keccak256(bytes(title))){\n\t\t\t\trequire(conferences[i].current<conferences[i].max,\"Enrolled full\");\n\t\t\t\tconferences[i].current = conferences[i].current+1;\n\t\t\t\tif(conferences[i].current==conferences[i].max){\n\t\t\t\t\temit ConferenceExpire(title);\n\t\t\t\t}\n\t\t\t\tparticipants[msg.sender].confs.push(title);\n\t\t\t\temit MyNewConference(title);\n\t\t\t}\n\t\t}\n\t\tuint len = participants[msg.sender].confs.length;\n\t\trequire(len>0,\"Conference does not exist\");\n\t\treturn participants[msg.sender].confs[len-1];\n\t}\n\n\t//\n\t//title\n\tfunction newConference(string memory title,string memory detail,uint max) public returns(string memory) {\n\t\trequire(msg.sender==admin,\"permission denied\");\n\t\tconferences.push(Conference(title,detail,max,0));\n\t\temit NewConference(title,detail);\n\t\treturn conferences[conferences.length-1].title;\n\t}\n\n\t//[\"title1\",\"detail1\",\"title2\",\"detail2\"...]\n\tfunction queryConfList() public view returns(string[] memory) {\n\t\tuint count=0;\n\t\tfor(uint i=0;i<conferences.length;i++){\n\t\t\tif(conferences[i].current<conferences[i].max){\n\t\t\t\tcount+=2;\n\t\t\t}\n\t\t}\n\n\t\tstring[] memory list=new string[](count);\n\n\t\tcount = 0;\n\t\tfor(uint i=0;i<conferences.length;i++){\n\t\t\tif(conferences[i].current<conferences[i].max){\n\t\t\t\tlist[count] = conferences[i].title;\n\t\t\t\tlist[count+1] = conferences[i].detail;\n\t\t\t\tcount+=2;\n\t\t\t}\n\t\t}\n\n\t\treturn \tlist;\n\t}\n\n\t//\n\tfunction queryMyConf() public view returns(string[] memory) {\n\t\treturn participants[msg.sender].confs;\n\t}\n\n\t//\n\tevent NewConference(string title,string detail);\n\t//\n\tevent ConferenceExpire(string title);\n\t//\n\tevent MyNewConference(string title); \n\n\t/************************************************************/\n\t/*                                                          */\n\t/*                             */\n\t/*                                                          */\n\t/************************************************************/\n\tfunction delegate(address addr) public{\n\t\ttrustees[addr].push(participants[msg.sender]);\n\t}\n\tfunction enrollFor(string memory username,string memory title) public returns(string memory){\n\t\tuint ind;\n\t\tfor (uint i=0; i<trustees[msg.sender].length; i++) {\n\t\t\tif (keccak256(bytes(trustees[msg.sender][i].name)) == keccak256(bytes(username))) {\n\t\t\t\tind = i;\n\t\t\t\tbreak;\n\t\t\t}\n\t\t}\n\t\tfor (uint i=0; i<conferences.length; i++){\n\t\t\tif (keccak256(bytes(conferences[i].title)) == keccak256(bytes(title))){\n\t\t\t\trequire(conferences[i].current<conferences[i].max,\"Enrolled full\");\n\t\t\t\tconferences[i].current = conferences[i].current+1;\n\t\t\t\tif(conferences[i].current==conferences[i].max){\n\t\t\t\t\temit ConferenceExpire(title);\n\t\t\t\t}\n\t\t\t\ttrustees[msg.sender][ind].confs.push(title);\n\t\t\t\t//emit MyNewConference(title);\n\t\t\t}\n\t\t}\n\t\tuint len = trustees[msg.sender][ind].confs.length;\n\t\trequire(len>0,\"Conference does not exist\");\n\t\treturn trustees[msg.sender][ind].confs[len-1];\n\t}\n}\n",
  "sourcePath": "C:\\Users\\Lenovo\\Desktop\\\\Proj\\lab8\\contracts\\Enrollment.sol",
  "compiler": {
    "name": "solc",
    "version": "0.5.16+commit.9c3226ce.Emscripten.clang"
  },
  "schemaVersion": "3.4.10",
  "updatedAt": "2022-10-26T11:41:27.945Z",
  "networkType": "ethereum",
  "devdoc": {
    "methods": {}
  },
  "userdoc": {
    "methods": {
      "delegate(address)": {
        "notice": "*********************************************************"
      }
    }
  }
}